S017000077616C6B696E672D74616C6B626F782E73726563FE
S11300000C9434000C9451000C9451000C94510045
S11300100C9451000C9451000C9451000C94510018
S11300200C9451000C9451000C9451000C94510008
S11300300C9451000C9451000C9451000C945100F8
S11300400C9451000C9451000C9451000C945100E8
S11300500C9451000C9451000C9451000C945100D8
S11300600C9451000C94510011241FBECFEFD8E022
S1130070DEBFCDBF11E0A0E0B1E0E8E8F9E002C0E6
S113008005900D92A630B107D9F721E0A6E0B1E0C2
S113009001C01D92A830B207E1F70E9425020C941A
S11300A0C2040C94000090E01BC047E050E0491BE0
S11300B05109282F30E002C0359527954A95E2F77B
S11300C020FD04C025B1277F25B903C025B12860D0
S11300D025B925B1206225B925B12F7D25B99F5FAA
S11300E0983018F30895CF93DF93C0E0D0E004C0B4
S11300F080E00E9453002196C430D105CCF3DF91F7
S1130100CF910895EF92FF920F931F93CF93DF93B4
S1130110182FE62EF42E022F0E947300C0E0D0E0C8
S113012071C0812F90E0C817D90769F48FEF0E943E
S11301305300802F0E9453008F2D0E9453008E2D58
S11301400E9453005EC09C0121503109C217D3079D
S113015079F4112369F08FEE0E945300802F0E94DE
S113016053008F2D0E9453008E2D0E94530049C0CE
S11301709C012F5F3F4FC217D30779F41E3168F4F7
S11301808FEE0E945300802F0E9453008F2D0E94F7
S113019053008E2D0E94530034C09C01225031091B
S11301A0C217D30779F4123068F081EE0E9453002D
S11301B0802F0E9453008F2D0E9453008E2D0E9489
S11301C053001FC00296C817D90779F41D3168F48B
S11301D081EE0E945300802F0E9453008F2D0E94B5
S11301E053008E2D0E9453000CC08FEF0E945300C9
S11301F080E00E94530080E00E94530080E00E944F
S113020053002196CF31D1050CF48BCFDF91CF91E0
S11302101F910F91FF90EF900895CF93DF9380E0AB
S11302200E94530080E00E94530080E00E9453002B
S113023080E00E945300C0E0D0E00DC08FEF0E9428
S1130240530080E00E94530080E00E94530080E04D
S11302500E9453002196CF31D10584F3DF91CF91D1
S1130260089584B1886084B984B1806284B90E949D
S11302700D0108952091060140910701609102014A
S11302800E948200809100019091010182309105C9
S113029079F4809107018F3F39F481E090E09093E5
S11302A001018093000108958F5F809307010895F1
S11302B08130910579F480910201811107C084E0B5
S11302C090E0909301018093000108958150809300
S11302D0020108958430910579F4809106018F3FDD
S11302E039F483E090E09093010180930001089534
S11302F08F5F8093060108958330910569F480919E
S11303000701811105C010920101109200010895A6
S11303108150809307010895009779F48091020138
S11303208F3F39F485E090E09093010180930001C0
S113033008958F5F809302010895059771F4809169
S11303400601811107C082E090E09093010180933F
S113035000010895815080930601089588B1816059
S113036088B98AB18F778AB98BB180688BB98AB121
S11303708F7B8AB98BB180648BB98AB180628AB968
S113038085B58E7F85BD85B58D7F85BD85B584603A
S113039085BD84B5816084BD84B5826084BD85B526
S11303A0886085BD84B5806484BD84B58F7784BD41
S11303B08FEF87BD84B58F7E84BD84B5806284BD94
S11303C081E088BDE4E6F0E080818E7F8083ACE745
S11303D0B0E08C9180648C938C918F778C93EAE756
S11303E0F0E080818160808380818260808380816D
S11303F0846080838C918E7F8C938C918D7F8C9381
S11304008C918B7F8C938C91877F8C93808180627D
S11304108083ABE7B0E08C918E7F8C938C918D7F41
S11304208C938C918B7F8C93AEE7B0E08C91816040
S11304308C938C9182608C9380818068808380818E
S1130440806480830E94310108950E94AE014F9917
S11304500AC085B5816085BD85B58D7F85BD85B5AF
S1130460846085BD0BC04E9909C085B58E7F85BD5E
S113047085B58D7F85BD85B5846085BD8091780007
S1130480909179008433934098F067C0609178002C
S11304907091790080E090E00E94C7039B01AC0159
S11304A0C701B6010E94B3026B017C01219605C00D
S11304B0C0E0D0E0C12CD12C7601C43F81E0D80744
S11304C02CF320E030E04AEF53E4C701B6010E9468
S11304D01F0320E030E04FEF53E40E94B2020E9479
S11304E0980367BD67B570E080E090E00E94C703A1
S11304F06B017C016091030170910401072E000CD3
S1130500880B990B0E94C9039B01AC01C701B6017A
S11305100E941F030E94980368BD67B570E080E0E5
S113052090E00E94C90321EF30EF40EF5DE30E94A9
S113053055049B01AC0160E070E080EF91E40E94FF
S1130540B20220E030E040E450E40E94B3020E9492
S11305509103CB010E943A017ACF0E940D0117BC8E
S113056018BC75CF5058BB27AA270E94CA020C9406
S11305701B040E940D0438F00E94140420F039F486
S11305809F3F19F426F40C940A040EF4E095E7FB5B
S11305900C940404E92F0E942C0458F3BA17620740
S11305A073078407950720F079F4A6F50C944E049C
S11305B00EF4E0950B2EBA2FA02D0B01B90190017A
S11305C00C01CA01A0011124FF27591B99F0593FBE
S11305D050F4503E68F11A16F040A22F232F342F06
S11305E04427585FF3CF469537952795A795F04054
S11305F05395C9F77EF41F16BA0B620B730B840B69
S1130600BAF09150A1F0FF0FBB1F661F771F881F20
S1130610C2F70EC0BA0F621F731F841F48F4879578
S113062077956795B795F7959E3F08F0B0CF93956A
S1130630880F08F09927EE0F9795879508950E94E3
S113064033030C941B040E94140458F00E940D04FC
S113065040F029F45F3F29F00C94040451110C94E8
S11306604F040C940A040E942C0468F39923B1F3F8
S1130670552391F3951B550BBB27AA2762177307C4
S1130680840738F09F5F5F4F220F331F441FAA1F58
S1130690A9F335D00E2E3AF0E0E832D09150504014
S11306A0E695001CCAF72BD0FE2F29D0660F771FC2
S11306B0881FBB1F261737074807AB07B0E809F0A8
S11306C0BB0B802DBF01FF2793585F4F3AF09E3F2D
S11306D0510578F00C9404040C944F045F3FE4F348
S11306E0983ED4F3869577956795B795F7959F5F70
S11306F0C9F7880F911D9695879597F90895E1E0BC
S1130700660F771F881FBB1F621773078407BA071A
S113071020F0621B730B840BBA0BEE1F88F7E09575
S113072008950E9498036894B1110C944F0408959D
S11307300E94340488F09F5798F0B92F9927B75135
S1130740B0F0E1F0660F771F881F991F1AF0BA9571
S1130750C9F714C0B13091F00E944E04B1E008957D
S11307600C944E04672F782F8827B85F39F0B93F6F
S1130770CCF3869577956795B395D9F73EF4909524
S11307808095709561957F4F8F4F9F4F0895E894A2
S113079009C097FB3EF490958095709561957F4FC5
S11307A08F4F9F4F9923A9F0F92F96E9BB27939573
S11307B0F695879577956795B795F111F8CFFAF483
S11307C0BB0F11F460FF1BC06F5F7F4F8F4F9F4FB4
S11307D016C0882311F096E911C0772321F09EE812
S11307E0872F762F05C0662371F096E8862F70E078
S11307F060E02AF09A95660F771F881FDAF7880F52
S11308009695879597F9089597F99F6780E870E022
S113081060E008959FEF80EC089500240A94161672
S1130820170618060906089500240A9412161306DA
S1130830140605060895092E0394000C11F4882368
S113084052F0BB0F40F4BF2B11F460FF04C06F5F84
S11308507F4F8F4F9F4F089557FD9058440F551F5A
S113086059F05F3F71F04795880F97FB991F61F02E
S11308709F3F79F087950895121613061406551FA5
S1130880F2CF4695F1DF08C0161617061806991F11
S1130890F1CF86957105610508940895E894BB2706
S11308A066277727CB0197F908950E9468040C9472
S11308B01B040E940D0438F00E94140420F09523B8
S11308C011F00C9404040C940A0411240C944F04A5
S11308D00E942C0470F3959FC1F3950F50E0551FAF
S11308E0629FF001729FBB27F00DB11D639FAA2781
S11308F0F00DB11DAA1F649F6627B00DA11D661FD0
S1130900829F2227B00DA11D621F739FB00DA11DF0
S1130910621F839FA00D611D221F749F3327A00DAA
S1130920611D231F849F600D211D822F762F6A2F46
S113093011249F5750409AF0F1F088234AF0EE0FAB
S1130940FF1FBB1F661F771F881F91505040A9F7D8
S11309509E3F510580F00C9404040C944F045F3FB7
S1130960E4F3983ED4F3869577956795B795F79514
S1130970E7959F5FC1F7FE2B880F911D969587958C
S10B098097F90895F894FFCFE4
S10909880200FF0A00005A
S90300E616
